:100000000A128A11F22F83120313051101300A1606
:100010008A11F7220A128A110230F0000030F10032
:100020000A168A11C922080083120313C6006E3013
:100030004602031CF2280330BA003A08A4000A3032
:10004000F7000030F8004608BB00BC013B08F20096
:100050003C08F3006430F0000030F1000A168A1109
:1000600083230A128A117108FA007008F9000A162F
:100070008A1175240A128A117708093E0A168A1114
:10008000B6220A128A11293E84000A168A1100201B
:100090000A128A1183120313A7000A168A1100207C
:1000A0000A128A11A8000A168A1100200A128A115F
:1000B000A9000330BD003D08A4006430F700003003
:1000C000F8004608BE00BF013E08F9003F08FA00EC
:1000D0000A168A1175240A128A117708123E0A1626
:1000E0008A11B6220A128A11293E84000A168A1140
:1000F00000200A128A1183120313AA000A168A1119
:1001000000200A128A11AB000A168A1100200A1276
:100110008A11AC000A128A152A200A128A11831247
:1001200003132708C3002808C4002908C5000330AA
:10013000BA003A08A4004608BB00BC013B08F20024
:100140003C08F3000A30F0000030F1000A168A1172
:1001500083230A128A1170080A168A11B6220A121B
:100160008A11293E84000A168A1100200A128A1177
:1001700083120313A7000A168A1100200A128A119B
:10018000A8000A168A1100200A128A11A900430841
:10019000AA004408AB004508AC000A128A152A20C0
:1001A0000A128A11831203132708C0002808C1000D
:1001B0002908C2000030A7000030A8003F30A90085
:1001C0004008AA004108AB004208AC000A128A1598
:1001D0002A20831203132708B7002808B80029082B
:1001E000B90008000B304602031C7C290330BA001A
:1001F0003A08A4004608BB00BC013B08F2003C08DA
:10020000F3000A30F0000030F1000A168A1183234F
:100210000A128A1170080A168A11B6220A128A1165
:10022000293E84000A168A1100200A128A118312BC
:100230000313A7000A168A1100200A128A11A800C7
:100240000A168A1100200A128A11A9000330BD0083
:100250003D08A4000A30F7000030F8004608BE0050
:10026000BF013E08F9003F08FA000A168A117524FA
:100270000A128A117708093E0A168A11B6220A1252
:100280008A11293E84000A168A1100200A128A1156
:1002900083120313AA000A168A1100200A128A1177
:1002A000AB000A168A1100200A128A11AC000A1249
:1002B0008A152A200A128A11831203132708C30001
:1002C0002808C4002908C5000030A7000030A80095
:1002D0003F30A9004308AA004408AB004508AC0021
:1002E0000A128A152A20831203132708B700280848
:1002F000B8002908B90008000030A7000030A800A5
:100300003F30A9000330BA003A08A40046080A1694
:100310008A11B6220A128A11293E84000A168A110D
:1003200000200A128A1183120313AA000A168A11E6
:1003300000200A128A11AB000A168A1100200A1244
:100340008A11AC000A128A152A2083120313270887
:10035000B7002808B8002908B9000800831603135D
:10036000B2005B3083120313DE005E0883160313B2
:10037000A30001308312DA07FF305A0784000A16FF
:100380008A1100200A128A11DE005E088316031308
:10039000B60036080319ED2F253036060319D42987
:1003A000360883120313DC2FA401A5018312031363
:1003B0005A0884000A168A1100200A128A112E3A5D
:1003C000031D322A831603132517013083120313EA
:1003D000DE005E08DA0783160313B001B101831251
:1003E0005A0884000A168A1100200A128A110A1675
:1003F0008A11A8220A128A11031C3A2A83160313AF
:100400003108F1003008F0000A30F2000030F3004B
:100410000A128A1509200A128A11831203135A0834
:1004200084000A168A1100200A128A117007DE0061
:100430000030031801307107DF005E08D03E8316DC
:100440000313B000831203135F080318013EFF3E3D
:1004500083160313B100013083120313DE005E081C
:10046000DA07EF2983160313B001B10125163A2AE2
:100470002515502A013083120313DA07FF305A077B
:1004800084000A168A1100200A128A1183160313A7
:10049000B600003A0319ED2F663A0319382AB92934
:1004A0000030240583120313DE0007308316031384
:1004B000250583120313DF005E085F0403196F2F05
:1004C00083160313251E682A0630B0000030B100E1
:1004D0002308840083130008B300840A0008B400D2
:1004E000840A0008B500033083120313DE005E089F
:1004F00083160313A3073308F0003408F10035080E
:10050000F2000030F3000030F4000030F5000A166D
:100510008A11D0240A128A110318A72A83160313FA
:100520003308F0003408F1003508F2000A168A1189
:100530008C220A128A11700883160313B300710803
:10054000B4007208B5000330A4040030A50483167B
:100550000313AA01AB0135083404330403199B2BA0
:10056000B33084008313000883120313DE00840A6F
:100570000008DF00840A0008E000840A0008E100A7
:100580000F300310E10CE00CDF0CDE0CFF3E031D0E
:10059000C12AFF305E05E20000305F05E30062081B
:1005A000823E83160313AA00831203136308031801
:1005B000013EFF3E83160313AB00FF30AA0703186A
:1005C000AB0AFF30AB070330F0000030F1002B081E
:1005D000F3002A08F2000A128A1509200A128A1169
:1005E000710883160313AB007008AA000A30F700E5
:1005F0000030F8002B08FA002A08F9000A168A11C0
:1006000075240A128A11780883160313AB00770841
:10061000AA00AB1F112BFF30AA070318AB0AFF304B
:10062000AB072A03FF3A0A128A1565250A128A11B6
:1006300083120313370883160313AC0083120313CA
:10064000380883160313AD00831203133908831689
:100650000313AE00330883120313A700831603139A
:10066000340883120313A80083160313350883127A
:100670000313A900831603132C0883120313AA0083
:10068000831603132D0883120313AB008316031381
:100690002E0883120313AC000A128A152A200A12AC
:1006A0008A1183120313270883160313AC008312E5
:1006B0000313280883160313AD00831203132908BC
:1006C00083160313AE002C08F0002D08F1002E084D
:1006D000F2000030F3008030F4003F30F5000A16DD
:1006E0008A11D0240A128A1103187E2BFF30831638
:1006F0000313AA070318AB0AFF309A2B83160313C0
:100700002C08F0002D08F1002E08F2000030F30054
:100710002030F4004130F5000A168A11D0240A1264
:100720008A11031C9B2B013083160313AA0703189D
:10073000AB0A0030AB07831603133108803AFF0081
:1007400080307F02031DA62B0D3030020318E12BF1
:100750008316031330080A128A1114200A128A1110
:10076000831203133708C7003808C8003908C900C6
:1007700083160313330883120313CA00831603136B
:10078000340883120313CB00831603133508831236
:100790000313CC000A128A15FD200A128A11831253
:1007A0000313470883160313B30083120313480887
:1007B00083160313B400831203134908831603132B
:1007C000B500831603132B08803AFF0080307F02A8
:1007D000031DEC2B0A302A0203181F2C8316031367
:1007E0003508340433040319782C330883120313B7
:1007F000C00083160313340883120313C100831649
:100800000313350883120313C2000A168A11F72551
:100810000A128A118312031343084204410440045C
:10082000031D782C831603132B08803AFF008030B9
:100830007F02031D1D2C02302A02031C782C831614
:1008400003132C08F0002D08F1002E08F200703080
:10085000F3008930F4004030F5000A168A11D024E4
:100860000A128A110318362CF730372CF830831609
:100870000313AA070318AB0AFF30AB072A080A12B2
:100880008A1565250A128A11831203133708831605
:100890000313AC0083120313380883160313AD004F
:1008A00083120313390883160313AE003308F000D4
:1008B0003408F1003508F2002C08F3002D08F4008C
:1008C0002E08F5000A168A113D270A128A117308AC
:1008D00083160313A9007208A8007108A700700806
:1008E000A6000030B3000030B4000030B500E72CA3
:1008F00083160313330883120313C00083160313F4
:10090000340883120313C1008316031335088312BE
:100910000313C2000A168A11F7250A128A118312DC
:100920000313430883160313A90083120313420819
:1009300083160313A80083120313410883160313BD
:10094000A70083120313400883160313A600290887
:10095000FB002808FA002708F9002608F8000A1604
:100960008A1158230A128A11780883120313D400BB
:100970007908D5007A08D60083160313330883124A
:100980000313D70083160313340883120313D8000C
:1009900083160313350883120313D9000A168A112C
:1009A00037230A128A118312031354088316031380
:1009B000B30083120313550883160313B400831284
:1009C0000313560883160313B500AA01AB01B60141
:1009D000B60A0A30360603193D2D36088312031372
:1009E000DE0001300310DE0DFF3E031DF22C03106C
:1009F0005E0D013E84000A168A1100200A128A1137
:100A0000DF000A168A1100200A128A11E0000A1675
:100A10008A1100200A128A11E1000A168A110020A8
:100A20000A128A11E2006208831603132902031DC9
:100A30002F2D831203136108831603132802031D4D
:100A40002F2D831203136008831603132702031D3F
:100A50002F2D831203135F08831603132602031C32
:100A60003D2D013083120313DE005E08831603134D
:100A7000B6070A303606031DED2C03302405831219
:100A80000313DE00003083160313250583120313BE
:100A9000DF005E085F0403195E2D2D30DE00831633
:100AA000031332088400831203135E08831380004B
:100AB0000130DE005E0883160313B207FF30831295
:100AC000DE005E0883160313B607360A0319E42D09
:100AD000360883120313DE0001300310DE0DFF3EE3
:100AE000031D6D2D03105E0D013E84000A168A1150
:100AF00000200A128A11F0000A168A1100200A1238
:100B00008A11F1000A168A1100200A128A11F200D5
:100B10000A168A1100200A128A11F30083160313A1
:100B20002908F7002808F6002708F5002608F40031
:100B30000A168A112D250A128A11730883160313C7
:100B4000AF007208AE007108AD007008AC00003054
:100B5000F3000030F2000030F1000A30F0002F08FE
:100B6000F7002E08F6002D08F5002C08F4000A16F0
:100B70008A11CE230A128A11730883160313AF0059
:100B80007208AE007108AD007008AC002C08303E51
:100B9000831203134E2D303083120313DE008316AD
:100BA000031332088400831203135E08831380004A
:100BB0000130DE005E0883160313B207FF30AA0778
:100BC0000318AB0AFF30AB072B08803AFF008030D8
:100BD0007F02031DED2D01302A020318CB2D831651
:100BE00003133108803AFF0080307F02031DFA2D85
:100BF00009303002031CFE2D0830012E831603132A
:100C0000300883120313DE005E0883160313B60058
:100C1000360883120313DE00DF01DE1BDF035E08EC
:100C200083160313B002831203135F0883160313A2
:100C3000031CB103B10236080319312E2E30831282
:100C40000313DE0083160313320884008312031398
:100C50005E08831380000130DE005E0883160313F4
:100C6000B20736080A128A1565250A128A118312FC
:100C70000313370883160313A000831203133808E5
:100C800083160313A1008312031339088316031379
:100C9000A200200883120313AA008316031321085D
:100CA00083120313AB00831603132208831203136A
:100CB000AC0083160313330883120313A7008316B3
:100CC0000313340883120313A80083160313350893
:100CD00083120313A9000A128A152A200A128A1104
:100CE000831203132708C0002808C1002908C20086
:100CF0000A168A11F7250A128A1183120313430870
:100D000083160313A90083120313420883160313E7
:100D1000A80083120313410883160313A70083124C
:100D20000313400883160313A600FF308312031336
:100D3000DE005E0883160313B607360A03196A2F0E
:100D4000360883120313DE0001300310DE0DFF3E70
:100D5000031DA52E03105E0D013E84000A168A11A4
:100D600000200A128A11F0000A168A1100200A12C5
:100D70008A11F1000A168A1100200A128A11F20063
:100D80000A168A1100200A128A11F300831603132F
:100D90002908F7002808F6002708F5002608F400BF
:100DA0000A168A112D250A128A1173088316031355
:100DB000AF007208AE007108AD007008AC000030E2
:100DC000F3000030F2000030F1000A30F0002F088C
:100DD000F7002E08F6002D08F5002C08F4000A167E
:100DE0008A11CE230A128A11730883160313AF00E7
:100DF0007208AE007108AD007008AC002C08303EDF
:100E000083120313DE008316031332088400831257
:100E100003135E08831380000130DE005E08831632
:100E20000313B207360883120313DE0001300310E8
:100E3000DE0DFF3E031D172F03105E0D013E8400E3
:100E40000A168A1100200A128A11F0000A168A1165
:100E500000200A128A11F1000A168A1100200A12D3
:100E60008A11F2000A168A1100200A128A11F30070
:100E7000831603132908F7002808F6002708F50051
:100E80002608F4000A168A11CE230A128A11730862
:100E900083160313A9007208A8007108A700700840
:100EA000942E303083120313DE00831603133208AE
:100EB0008400831203135E08831380000130DE0078
:100EC0005E0883160313B207FF30B0070318B10A98
:100ED000FF30B107300831040319B929512F8316A7
:100EE000031330083104031D812F29082804270427
:100EF0002604031D812F0130B0070318B10A00300A
:100F0000B107360883120313DE00DF01DE1BDF03A7
:100F10005F08803AE000831603133108803A831299
:100F200003136002031D9A2F8316031330088312E4
:100F300003135E020318A72F8316031330088312CE
:100F40000313DE005E0883160313B600C92F831651
:100F50000313360883120313DE00DF01DE1BDF03F9
:100F6000831603133108803A83120313E0005F08ED
:100F7000803A6002031DC02F5E08831603133002FF
:100F80000318C92F831603133608B000B101B01B34
:100F9000B103033083160313240583120313DE0009
:100FA000003083160313250583120313DF005E0848
:100FB0005F040319B9292D30DE00831603133208AC
:100FC0008400831203135E08831380000130DE0067
:100FD0005E0883160313B207B9293208840083130D
:100FE00080010800E801E901EA018313B7308400B9
:100FF000CB300A168A11942283010A128A15382BE3
:10100000F60083120313051176080A168A11F722D7
:101010000800F401F501701C13287208F407031886
:10102000F50A7308F50701300310F20DF30DFF3ECA
:10103000031D142801300310F10CF00CFF3E031DBA
:101040001B2870087104031D0B287508F100740833
:10105000F0000800831203132708AD002808AE0033
:101060002908AF0003102E0D2F0DB0003008B1007D
:101070003108031D42280030A7000030A8000030CE
:10108000A90008002A08AD002B08AE002C08AF000C
:1010900003102E0D2F0DB0003008B6003608031DCA
:1010A00058280030A7000030A8000030A900080030
:1010B00036087B3EAD002D08B1072708AD00280893
:1010C000AE002908AF0010300310AF0CAE0CAD0C11
:1010D000FF3E031D64282D08B0003008B6002A0822
:1010E000AD002B08AE002C08AF0010300310AF0C81
:1010F000AE0CAD0CFF3E031D76282D08B000300865
:10110000B6068030AD002D08B605A817AB17FF3026
:10111000AA05FF30AB050030AC050030B20000304E
:10112000B3000030B4000730AD002D08B500271C17
:10113000A7282A08B2072B08031103182B0A031D3E
:10114000B3072C08031103182C0A031DB407013040
:101150000310A90CA80CA70CFF3E031DA828013002
:101160000310AA0DAB0DAC0DFF3E031DB0280130DE
:10117000B502031D97280930AD002D08B500271CC6
:10118000CF282A08B2072B08031103182B0A031DC6
:10119000B3072C08031103182C0A031DB4070130F0
:1011A0000310A90CA80CA70CFF3E031DD02801308A
:1011B0000310B40CB30CB20CFF3E031DD828013051
:1011C000B502031DBF283208F0003308F1003408CF
:1011D000F2003108AD002D08F3003608AE002E08ED
:1011E000F4000A168A118B25700883120313A700D6
:1011F0007108A8007208A9000800831203134708A9
:10120000CD004808CE004908CF0003104E0D4F0D09
:10121000D0005008D3004A08CD004B08CE004C083F
:10122000CF0003104E0D4F0DD0005008D2005308D0
:10123000031926295208530203182D295303FF3A94
:101240005207CD0019304D02031C2D294A08C70052
:101250004B08C8004C08C9000800520803190800D0
:101260005308520203183C295203FF3A5307CD009A
:1012700019304D02031808000630CD004D08D1008A
:10128000C91BD117CC1B5117C817FF30C705FF303A
:10129000C8050030C905CB17FF30CA05FF30CB05A4
:1012A0000030CC055208530203187C29013003108A
:1012B000CA0DCB0DCC0DFF3E031D57290130D202C4
:1012C00052085306031977290130D1025108073912
:1012D00003197729562901300310C90CC80CC70C13
:1012E000FF3E031D6C290130CD004D08D307530884
:1012F00052060319A5296B29530852020318A52980
:1013000001300310C70DC80DC90DFF3E031D812913
:101310000130D302520853060319A1290130D1022A
:10132000510807390319A129802901300310CC0C79
:10133000CB0CCA0CFF3E031D96290130CD004D0891
:10134000D20753085206031D9529D11FB729FF3034
:10135000C706FF30C806FF30C9060130C707003096
:1013600003180130C807003003180130C907511FA6
:10137000C929FF30CA06FF30CB06FF30CC0601304A
:10138000CA07003003180130CB07003003180130C2
:10139000CC07D1014708CA07480803110318480AB7
:1013A000031DCB07490803110318490A031DCC0785
:1013B000CC1FEC29FF30CA06FF30CB06FF30CC062D
:1013C0000130CA07003003180130CB070030031882
:1013D0000130CC07D101D10A4A08F0004B08F100D6
:1013E0004C08F2005308CD004D08F3005108CE0020
:1013F0004E08F4000A168A118B2570088312031315
:10140000C7007108C8007208C90008007030840065
:101410000008F600840A0008F700840A0008F800B3
:10142000840A0008F9000310780D790DFA007A0893
:1014300083120313A5002508031D272A0030F3009B
:101440000030F2000030F1000030F000080073308E
:1014500084000008F600840A0008F700840A0008E7
:10146000F800840A0008F9000310780D790DFA00DD
:101470007A08A4002408031D462A0030F300003037
:10148000F2000030F1000030F000080070308400FD
:1014900000308004840A00308004840A8030800494
:1014A000840A0030800470308400FF308005840A94
:1014B000FF308005840AFF308005840A00308005F3
:1014C0007330840000308004840A00308004840A71
:1014D00080308004840A0030800473308400FF3040
:1014E0008005840AFF308005840AFF308005840A65
:1014F000003080050030A3000030A2000030A100C1
:101500000030A0007F30A502A0302407F600760846
:10151000A5022030F6007608A4000130F600031082
:10152000A00DA10DA20DA30DF60B8F2A7330840020
:101530000008F600840A0008F700840A0008F80092
:10154000840A0008F900703084000008FA00840A58
:101550000008FB00840A0008FC00840A0008FD0063
:1015600079087D02031DBE2A78087C02031DBE2A6D
:1015700077087B02031DBE2A76087A02031CE32A41
:10158000733084000008F600840A0008F700840A1B
:101590000008F800840A0008F9007030840076081A
:1015A0008002840A7708031C770F8002840A780877
:1015B000031C780F8002840A7908031C790A8002D0
:1015C000033084022014703084000310800D840ADC
:1015D000800D840A800D840A800D840384038403B3
:1015E0000130A402031D8D2AA51F142B2508803A63
:1015F0009F3E0318042B0030F3000030F20000304F
:10160000F1000030F000080001300310A30CA20C20
:10161000A10CA00CFF3E031D052B0130F60076083F
:10162000A50703192F2B042B20302502031C2C2B7C
:101630000030F3000030F2000030F1000030F00024
:1016400008000130F6000310A00DA10DA20DA30D9E
:10165000F60B232B0130A5022508031D212B23089F
:10166000F3002208F2002108F1002008F000080031
:10167000F030831603178800890180308316031326
:101680009F00850104308600073089000A168A1100
:101690001A240A128A150A128A1103200A128A15BC
:1016A0002130831203139F009F140130F00000309B
:1016B000F1000A168A11C9220A128A15831203132D
:1016C0009F185E2B831603131E0883120313E40076
:1016D000E5011E08E600E7016608E700E601640888
:1016E0006604F80065086704F9000A168A111623D3
:1016F0000A128A15780883120313E8007908E900B2
:101700007A08EA00C030B7007F30B8004430B90032
:101710000030A700A030A8004030A9006808AA0047
:101720006908AB006A08AC000A128A152A200A125E
:101730008A15831203132708BA002808BB0029085A
:10174000BC000A168A1185260A128A158312031311
:101750003708E8003808E9003908EA0080300A1242
:101760008A1500200A128A15773083120313E400C9
:101770006408DA006808DB006908DC006A08DD003C
:10178000B7300A128A11AE210A128A15B7300A162A
:101790008A11DF220A128A153230F0000030F1007F
:1017A0000A168A11C9220A128A15153083120313E8
:1017B0009F009F140130F0000030F1000A168A11DA
:1017C000C9220A128A15831203139F18E32B83166A
:1017D00003131E0883120313E400E5011E08E6004C
:1017E000E7016608E700E60164086604F80065089A
:1017F0006704F9000A168A1116230A128A15780856
:1018000083120313E8007908E9007A08EA00C0307F
:10181000B7007F30B8004430B9000030A700A030D6
:10182000A8004030A9006808AA006908AB006A084F
:10183000AC000A128A152A200A128A158312031391
:101840002708BA002808BB002908BC000A168A111C
:1018500085260A128A15831203133708E800380810
:10186000E9003908EA0089300A128A1500200A12B4
:101870008A157F3083120313E4006408DA006808D5
:10188000DB006908DC006A08DD00B7300A128A1143
:10189000AE210A128A15B7300A168A11DF220A12FF
:1018A0008A153230F0000030F1000A168A11C92280
:1018B0000A128A151930831203139F009F140130F6
:1018C000F0000030F1000A168A11C9220A128A15A6
:1018D000831203139F18682C831603131E088312A8
:1018E0000313E400E5011E08E600E7016608E700CF
:1018F000E60164086604F80065086704F9000A1642
:101900008A1116230A128A15780883120313E80035
:101910007908E9007A08EA00C030B7007F30B800E3
:101920004430B9000030A700A030A8004030A90022
:101930006808AA006908AB006A08AC000A128A1598
:101940002A200A128A15831203132708BA002808CE
:10195000BB002908BC000A168A1185260A128A15BE
:10196000831203133708E8003808E9003908EA0051
:10197000C0300A128A1500200A128A158730831295
:101980000313E4006408DA006808DB006908DC007F
:101990006A08DD00B7300A128A11AE210A128A15D0
:1019A000B7300A168A11DF220A128A153230F00087
:1019B0000030F1000A168A11C9220A128A151D3058
:1019C000831203139F009F140130F0000030F100D8
:1019D0000A168A11C9220A128A15831203139F1844
:1019E000ED2C831603131E0883120313E400E50194
:1019F0001E08E600E7016608E700E60164086604E1
:101A0000F80065086704F9000A168A1116230A12FD
:101A10008A15780883120313E8007908E9007A0828
:101A2000EA00C030B7007F30B8004430B900003061
:101A3000A700A030A8004030A9006808AA006908E3
:101A4000AB006A08AC000A128A152A200A128A150D
:101A5000831203132708BA002808BB002908BC001A
:101A60000A168A1185260A128A158312031337086B
:101A7000E8003808E9003908EA00C9300A128A1576
:101A800000200A128A158F3083120313E4006408C1
:101A9000DA006808DB006908DC006A08DD00B7309E
:101AA0000A128A11AE210A128A15B7300A168A1153
:101AB000DF220A128A153230F0000030F1000A16D7
:101AC0008A11C9220A128A15502B83120313BF00F0
:101AD000BF1FB62EBF09BF0A3F08803A123E031C43
:101AE000292E0330BA003A08A4000A30F70000306B
:101AF000F8003F08F200F301F21BF3036430F0003A
:101B00000030F1000A168A1183230A128A1571081F
:101B1000FA007008F9000A168A1175240A128A154B
:101B20007708093E0A168A11B6220A128A15293E3A
:101B300084000A168A1100200A128A1583120313E0
:101B4000A7000A168A1100200A128A15A8000A1690
:101B50008A1100200A128A15A9000330BB003B0835
:101B6000A4006430F7000030F8003F08F900FA01E3
:101B7000F91BFA030A168A1175240A128A157708C6
:101B8000123E0A168A11B6220A128A15293E8400CC
:101B90000A168A1100200A128A1583120313AA005A
:101BA0000A168A1100200A128A15AB000A168A1139
:101BB00000200A128A15AC000A128A152A200A127D
:101BC0008A15831203132708BC002808BD002908C2
:101BD000BE000330BA003A08A4003F08F200F30147
:101BE000F21BF3030A30F0000030F1000A168A11EC
:101BF00083230A128A1570080A168A11B6220A125D
:101C00008A15293E84000A168A1100200A128A15B4
:101C100083120313A7000A168A1100200A128A15DC
:101C2000A8000A168A1100200A128A15A9003C0889
:101C3000AA003D08AB003E08AC000A128A152A2013
:101C4000831203132708B7002808B8002908B90031
:101C500008003F08803A753E031C972E0330BA00F7
:101C60003A08A4003F08F200F301F21BF3030A3024
:101C7000F0000030F1000A168A1183230A128A1537
:101C800070080A168A11B6220A128A15293E8400A3
:101C90000A168A1100200A128A1583120313A7005C
:101CA0000A168A1100200A128A15A8000A168A113B
:101CB00000200A128A15A9000330BB003B08A400CB
:101CC0000A30F7000030F8003F08F900FA01F91B6C
:101CD000FA030A168A1175240A128A157708093E32
:101CE0000A168A11B6220A128A15293E84000A169B
:101CF0008A1100200A128A1583120313AA000A16F9
:101D00008A1100200A128A15AB000A168A110020D7
:101D10000A128A15AC000A128A152A2083120313AC
:101D20002708B7002808B8002908B90008000330C0
:101D3000BA003A08A4003F080A168A11B6220A120D
:101D40008A15293E84000A168A1100200A128A1573
:101D500083120313B7000A168A1100200A128A158B
:101D6000B8000A168A110020B90008003F08803A1E
:101D7000123E031C732F0330BA003A08A4000A3045
:101D8000F7000030F8003F08F200F301F21BF30304
:101D90006430F0000030F1000A168A1183230A1221
:101DA0008A157108FA007008F9000A168A1175245C
:101DB0000A128A157708093E0A168A11B6220A12F3
:101DC0008A15503E84000A168A1100200A128A15CC
:101DD00083120313A7000A168A1100200A128A151B
:101DE000A8000A168A1100200A128A15A9000330D9
:101DF000BB003B08A4006430F7000030F8003F0847
:101E0000F900FA01F91BFA030A168A1175240A125D
:101E10008A157708123E0A168A11B6220A128A1506
:101E2000503E84000A168A1100200A128A15831275
:101E30000313AA000A168A1100200A128A15AB00A1
:101E40000A168A1100200A128A15AC000A128A1595
:101E50002A200A128A15831203132708BC002808B7
:101E6000BD002908BE000330BA003A08A4003F08AC
:101E7000F200F301F21BF3030A30F0000030F1002E
:101E80000A168A1183230A128A1570080A168A1103
:101E9000B6220A128A15503E84000A168A110020C2
:101EA0000A128A1583120313A7000A168A1100204A
:101EB0000A128A15A8000A168A1100200A128A1529
:101EC000A9003C08AA003D08AB003E08AC000A127D
:101ED0008A152A20831203132708B7002808B800A0
:101EE0002908B90008003F08803A753E031CE12F1D
:101EF0000330BA003A08A4003F08F200F301F21BD5
:101F0000F3030A30F0000030F1000A168A1183232F
:101F10000A128A1570080A168A11B6220A128A1540
:101F2000503E84000A168A1100200A128A15831274
:101F30000313A7000A168A1100200A128A15A800A6
:101F40000A168A1100200A128A15A9000330BB0064
:101F50003B08A4000A30F7000030F8003F08F90001
:101F6000FA01F91BFA030A168A1175240A128A1556
:101F70007708093E0A168A11B6220A128A15503EBF
:101F800084000A168A1100200A128A15831203138C
:101F9000AA000A168A1100200A128A15AB000A1636
:101FA0008A1100200A128A15AC000A128A152A200A
:101FB000831203132708B7002808B8002908B900BE
:101FC00008000330BA003A08A4003F080A168A1134
:101FD000B6220A128A15503E84000A168A11002081
:101FE0000A128A1583120313B7000A168A110020F9
:101FF0000A128A15B8000A168A110020B9000800D2
:1020000010308A000408840A820700340134003446
:10201000003400340A3400340034003464340034B2
:1020200000340034E83403340034003410342734EE
:1020300000340034A0348634013400344034423457
:102040000F34003480349634983400340034E13452
:10205000F53405340034CA349A343B3400348034C7
:102060003F34CD34CC343D34D73423343C34123473
:1020700083343A34B734D1343834C634273437341F
:10208000383486343534C034D6343334CC342B34FD
:102090003234703489343034E734DB342E34E53470
:1020A0003C341E344234A2340D34003480343F3486
:1020B0000034203441340034C834423400347A349B
:1020C000443440341C3446345034C334473424340C
:1020D00074344934973418344B34BC34BE344C34E3
:1020E0006B346E344E340334153450347934AD349B
:1020F0006034F33449347134563431343D3425344A
:102100002E34333466340034563432343D3425347E
:102110002E34333466340034563433343D3425346D
:102120002E34333466340034563434343D3425345C
:082130002E3433346634003410
:10251800720871047004031908008030F20608007C
:1025280064008001840A0406031900340406952A0D
:1025380001308316031381000D30831203138100C9
:102548000B1DA42A0B110800F100F0013A307102AA
:102558000318B42A30307102031CB42AF001F00ABF
:10256800700C080083120313A600A501261CC02ABC
:102578002408FC007C08A5070310A40D0310A60C72
:102588002608031DBA2A25080800F201F30173087A
:102598007102031DD12A72087002031C08000A1672
:1025A8008A119C220A168A110130F2070318F30ACD
:1025B8000030F307CB2AF7008312031305157708B9
:1025C8008400831300080319080077088400831324
:1025D80000080A168A11F7220A168A110130F60035
:1025E8007608F707E32AF5000130F0000030F10023
:1025F8000A168A11C9220A168A117508F4000430CD
:102608000310F40CFF3E031D042B74080F398312CA
:10261800031387008514851075080F398700851402
:1026280085100800FD01F91F202BF809F909F80A9F
:102638000319F90AFD01FD0A7808F0007908F1008C
:10264800F2018E30FB007B08F3007D08FC007C085B
:10265800F4000A168A118B257008F8007108F90031
:102668007208FA000800831203135608550454042C
:102678000319402B8030D6065708C7005808C800F1
:102688005908C9005408CA005508CB005608CC00A0
:102698000A128A15FD20831203134708D40048083C
:1026A800D5004908D60008008E30FC007C08FD00E3
:1026B800FF307B0503196E2B01300310FB0CFA0C5D
:1026C800F90CF80CFF3E031D612B0130FC007C085F
:1026D800FD075C2B7808F0007908F1007A08F20011
:1026E8007D08FC007C08F300F4010A168A118B258A
:1026F8007008F8007108F9007208FA000800F6017D
:10270800F31F8D2BF209F309F20A0319F30AF601F4
:10271800F60AF11F942BF009F109F00A0319F10ADE
:10272800700871040319C12BF501F50AF11BA82BD8
:1027380001300310F00DF10DFF3E031D9D2B0130FC
:10274800F4007408F5079A2B71087302031DAE2B69
:1027580070087202031CB62B7008F2027108031C81
:10276800F303F30201300310F10CF00CFF3E031DDC
:10277800B72B0130F502031DA82B76080319C92BC6
:10278800F209F309F20A0319F30A7308F10072084F
:10279800F000080073087204710470040319112C06
:1027A800F901F90AF31BE62B0130F8000310F00DCC
:1027B800F10DF20DF30DF80BDA2B0130F800780863
:1027C800F907D62B73087702031DF42B72087602DB
:1027D800031DF42B71087502031DF42B7008740295
:1027E800031C042C7008F4027108031C710FF50215
:1027F8007208031C720FF6027308031C730FF702AA
:1028080001300310F30CF20CF10CF00CFF3E031D29
:10281800052C0130F902031DE62B7708F300760832
:10282800F2007508F1007408F00008000330F600A3
:102838007608F700831603138501870183120313B3
:102848000511851005120F30F0000030F1000A164E
:102858008A11C9220A168A1177088312031387007E
:10286800851485100A30F0000030F1000A168A112C
:10287800C9220A168A1183120313851485100A3097
:10288800F0000030F1000A168A11C9220A168A11CE
:1028980083120313851485100A30F0000030F1000C
:1028A8000A168A11C9220A168A11023083120313E2
:1028B80087008514851028300A168A11F7220A160F
:1028C8008A110F300A168A11F7220A168A110A127B
:1028D8008A1103200A168A1106300A168A11F7226D
:1028E800080083120313A101F81F812CF709F809C6
:1028F800F70A0319F80AA101A10AFA1F8C2CF90991
:10290800FA09F90A0319FA0A0130FB007B08A10643
:10291800A201A301770878040319C32CA001A00A17
:10292800F81BA22C01300310F70DF80DFF3E031D14
:10293800972C0130FB007B08A007942C0130031072
:10294800A20DA30DFF3E031DA32C78087A02031DD8
:10295800AF2C77087902031CB82C7708F90278089D
:10296800031CFA03FA02221401300310F80CF70CC6
:10297800FF3E031DB92C0130A002031DA22C210823
:102988000319CB2CA209A309A20A0319A30A230835
:10299800F8002208F7000800F21FF72C0030F600B4
:1029A8000030F7008030F8007009F9007109FA006A
:1029B8007209FB00F90A0319FA0A0319FB0A7908D4
:1029C800F6077A0803187A0FEA2CEB2CF7077B082E
:1029D80003187B0FF02CF12CF8077608F000770825
:1029E800F1007808F200F51F1E2D0030F6000030C7
:1029F800F7008030F8007309F9007409FA007509C6
:102A0800FB00F90A0319FA0A0319FB0A7908F60701
:102A18007A0803187A0F112D122DF7077B0803186F
:102A28007B0F172D182DF8077608F3007708F400A8
:102A38007808F5008030F2068030F50675087202D5
:102A4800031D080074087102031D08007308700252
:102A580008000030FC000030FB000030FA000030B5
:102A6800F90073087204710470040319822DFD01C2
:102A7800FD0AF31B4D2D0130F8000310F00DF10D88
:102A8800F20DF30DF80B412D0130F8007808FD0721
:102A98003D2D0130F8000310F90DFA0DFB0DFC0D6A
:102AA800F80B4F2D73087702031D642D7208760208
:102AB800031D642D71087502031D642D70087402CE
:102AC800031C752D7008F4027108031C710FF502C0
:102AD8007208031C720FF6027308031C730FF702C7
:102AE800791401300310F30CF20CF10CF00CFF3EDA
:102AF800031D762D0130FD02031D4D2D7C08F300CA
:102B08007B08F2007A08F1007908F00008007308E1
:102B18000319932D720871047004031DA62D00304B
:102B2800F0000030F1000030F20008000130F5003C
:102B38007508F30701300310F20CF10CF00CFF3E9E
:102B4800031D9F2DFE3072050319C12D9A2D0130EA
:102B5800F5007508F3070130F0070030031801305D
:102B6800F107003003180130F20701300310F20CAE
:102B7800F10CF00CFF3E031DBA2DFF30720503194E
:102B8800D02DAB2D0130F30201300310F00DF10D03
:102B9800F20DFF3E031DC92DF11BD62D0230730225
:102BA8000318C62D7318DE2DFF30F0057F30F105B0
:102BB800FF30F2050310F30C7308F500F601F70176
:102BC80010300310F50DF60DF70DFF3E031DE52D32
:102BD8007508F0047608F1047708F20474080319FC
:102BE8000800F2170800831203134008C4004108C4
:102BF800C5004208C6000310450D460DC70047082A
:102C0800CD004D08031D112E0030C3000030C20056
:102C18000030C1000030C00008004008C40041086E
:102C2800C5004208C60017300310C60CC50CC40CFA
:102C3800FF3E031D182E4408C7004708C800C117E7
:102C4800FF30C005FF30C1050030C2054008C9008B
:102C58004108CA004208CB00CC018E30CD02CD1FFE
:102C6800532E4D08803A8F3E0318432E0030C30080
:102C78000030C2000030C1000030C0000800013040
:102C88000310CC0CCB0CCA0CC90CFF3E031D442E00
:102C98000130C4004408CD0703196E2E432E1830A6
:102CA8004D02031C6B2E0030C3000030C200003000
:102CB800C1000030C00008000130C4000310C90D75
:102CC800CA0DCB0DCC0DC40B622E0130CD024D08C0
:102CD800031D602E480803197C2EC909CA09CB09AF
:102CE800CC09C90A0319CA0A0319CB0A0319CC0A61
:102CF8004C08C3004B08C2004A08C1004908C0007C
:102D08000800831203133A08BD003B08BE003C08C4
:102D1800BF0003103E0D3F0DC0004008C500450828
:102D2800031D9D2E0030B7000030B8000030B900F8
:102D380008003708BD003808BE003908BF00031076
:102D48003E0D3F0DC0004008C6004608031DB32EC7
:102D58000030B7000030B8000030B900080000307B
:102D6800C2000030C3000030C40089304607BD00EF
:102D78003D08C5023A08BD003B08BE003C08BF003C
:102D880010300310BF0CBE0CBD0CFF3E031DC52E3A
:102D98003D08C0004008C6003708BD003808BE001E
:102DA8003908BF0010300310BF0CBE0CBD0CFF3E2D
:102DB800031DD72E3D08C0004008C6068030BD0060
:102DC8003D08C605BB17FF30BA05FF30BB0500300C
:102DD800BC05B817FF30B705FF30B8050030B90596
:102DE8001830BD003D08C10001300310C20DC30DED
:102DF800C40DFF3E031DF92E39083C02031D0A2F9E
:102E080038083B02031D0A2F37083A02031C172F04
:102E18003708BA023808031C380FBB023908031CEC
:102E2800390ABC02421401300310BA0DBB0DBC0DA7
:102E3800FF3E031D182F0130C102031DF82E420862
:102E4800F0004308F1004408F2004508BD003D08C1
:102E5800F3004608BE003E08F4000A168A118B25C6
:102E6800700883120313B7007108B8007208B9001C
:102E780008007008F6007108F7007208F8000310DF
:102E8800770D780DF900790883120313A50025083A
:102E9800031D572F0030F3000030F2000030F1001E
:102EA8000030F00008007308F6007408F700750891
:102EB800F8000310770D780DF9007908A4002408AC
:102EC800031D6F2F0030F3000030F2000030F100D6
:102ED8000030F0000800F117FF30F005FF30F10571
:102EE8000030F205F417FF30F305FF30F405003029
:102EF800F5050030A3000030A2000030A10000302A
:102F0800A0007F30A50298302407F6007608A502B5
:102F18001830F6007608A4000130F6000310A00D62
:102F2800A10DA20DA30DF60B922F75087202031DB9
:102F3800A32F74087102031DA32F73087002031CCA
:102F4800B02F7308F0027408031C740FF10275089F
:102F5800031C750AF202201401300310F00DF10D64
:102F6800F20DFF3E031DB12F0130A402031D902F67
:102F7800A51FDC2F2508803A973E0318CC2F003078
:102F8800F3000030F2000030F1000030F0000800DB
:102F980001300310A30CA20CA10CA00CFF3E031DD2
:102FA800CD2F0130F6007608A5070319F72FCC2F8F
:102FB80018302502031CF42F0030F3000030F20013
:102FC8000030F1000030F00008000130F600031076
:102FD800A00DA10DA20DA30DF60BEB2F0130A5023C
:102FE8002508031DE92F2308F3002208F200210811
:082FF800F1002008F0000800C0
:04400E00D4E0FFFFFC
:00000001FF
